:020000020000FC
:1000000000C04FEF47BB80EF84BB8FE58DBF84E01E
:100010008EBF8FEF81BB882780EF90D0803011F4A6
:100020009030D1F3A9D0482F80EF88D0803011F4E0
:100030009030D1F3A1D0433311F4853391F106D13F
:1000400081E4F0D08CE4EED081E4ECD082E5EAD01B
:100050008DE4E8D080E2E6D08FE4E4D08EE4E2D014
:100060004FEF48BB6BD02FD169D0442748BB2BD171
:100070004FEF48BB28D162D0442748BB24D15ED083
:100080004FEF48BB20D15AD0442748BB1CD156D093
:100090004FEF48BB18D152D0442748BB14D14ED0A3
:1000A000BBCFD4D087E5BED085E4BCD08CE4BAD039
:1000B00083E4B8D08FE4B6D08DE4B4D085E4B2D078
:1000C00080E2B0D083E3AED085E3ACD04FEF48BB45
:1000D000FAD034D0F8D032D0F6D030D0F4D02ED000
:1000E000F2D02CD0F0D02AD0EED028D0ECD026D030
:1000F000442748BB91CF95BB8F939F9384EF91E0AA
:10010000E2D09F918F910000000083B38F7008951B
:10011000AF93BF9390E1EFDF8295B82F90E2EBDFD2
:10012000B80F90E4E8DF8295A82F90E8E4DFA80FED
:10013000CD01AA27A5BBBF91AF9108956F937F937F
:10014000AF93BF93E5DF8F939F938FE090E0000024
:10015000DFDF7F916F9186239723A0E6B0E07D914A
:100160006C918C939E937095609586239723BF9195
:10017000AF917F916F910895AF93BF93DC018AE2B5
:10018000A0FD2FC080E3A1FD2CC083E2A2FD29C009
:1001900084E4A3FD26C087E3A4FD23C088E3A5FD76
:1001A00020C089E3A6FD1DC083E4A7FD1AC084E337
:1001B000B0FD17C085E3B1FD14C086E3B2FD11C0E8
:1001C00082E4B3FD0EC081E3B4FD0BC082E3B5FD54
:1001D00008C083E3B6FD05C081E4B7FD02C08827EF
:1001E00000C0BF91AF9108958F939F9380E797E1EF
:1001F0006AD09F918F918F9390B39F70807F890F6A
:1002000082BB939A93988F939F9380E797E15BD0FB
:100210009F918F918F918295807F890F82BB939A56
:10022000939808958F939F93929ADEDF8BE290E0EC
:1002300000009F918F9108958F939F939298D4DFA0
:1002400087E290E040D09F918F9108958F939F9384
:1002500088E290E038D080E382BB939A939887E25B
:1002600090E031D08F939F9388EE93E02CD09F91B4
:100270008F9180E382BB939A939887E290E023D09A
:100280008F939F9388EE93E01ED09F918F9180E291
:1002900082BB939A939887E290E015D08F939F93B7
:1002A00088EE93E010D09F918F9188E2C5DF8CE0BB
:1002B000C3DF81E0C1DF8AEF95E005D086E0BCDFD7
:1002C0009F918F91089501970000000000000000A9
:0C02D0000000000000000000B1F70895DD
:00000001FF
