:100000000C942A000C943C000C943C000C943C0092
:100010000C943C000C943C000C943C000C943C0070
:100020000C943C000C943C000C943C000C943C0060
:100030000C943C000C943C000C943C000C943C0050
:100040000C943C000C943C000C943C000C943C0040
:100050000C943C0011241FBECFE5D4E0DEBFCDBF21
:1000600020E0A0E6B0E001C01D92A836B207E1F79B
:100070000E943F010C9465010C94000021E030E0E7
:1000800002C0220F331F8A95E2F725BB8FE295E766
:100090000197F1F700C0000083B38F700895CF93EC
:1000A000DF93C0E0D0E009C0CE0104960E943E007C
:1000B000FE01E05AFF4F80832196C430D105A4F39E
:1000C00015BADF91CF910895EF92FF920F931F938E
:1000D000CF93DF9300D000D0CDB7DEB70E944F00A2
:1000E00080E090E00CC0FC01E05AFF4F2081E1E08D
:1000F000F0E0EC0FFD1FE80FF91F2083019684301C
:1001000091058CF38FE295E70197F1F700C00000AD
:100110000E944F0040E050E000E010E020C0EE24DC
:10012000E394F12CEC0EFD1EE40EF51EF701208188
:10013000DA01A05ABF4F9C912923BA016C597F4F15
:10014000FB019081F7019083FB012083909592231E
:100150009C93992311F001E010E04F5F5F4F443012
:100160005105ECF2C8010F900F900F900F90DF91A6
:10017000CF911F910F91FF90EF900895CF93DF9350
:100180008FEF88BBC0E0D0E003C00E9464002196DE
:10019000CE31D105D4F318BADF91CF9108950F93E2
:1001A0001F93CF93DF9300E010E017C08FEF88BB61
:1001B000C0E0D0E003C00E9464002196C430D105A5
:1001C000D4F318BAC0E0D0E003C00E9464002196C6
:1001D000C430D105D4F30F5F1F4F0430110534F341
:1001E000DF91CF911F910F9108958091600080FD64
:1001F00028C081FD28C082FD28C083FD28C08091D1
:10020000610080FD26C081FD26C082FD26C083FDE1
:1002100026C08091620080FD24C081FD24C082FD43
:1002200024C083FD24C09091630090FD22C091FD05
:1002300022C092FD22C0892F887093FF1FC084E4E2
:10024000089581E3089582E3089583E3089581E4A6
:10025000089584E3089585E3089586E3089582E48C
:10026000089587E3089588E3089589E3089583E472
:1002700008958AE2089580E3089583E208958FEF58
:1002800087BB80EF84BB80E090E005C0FC01EC59A7
:10029000FF4F1082019684309105C4F30E946400E0
:1002A000892BE1F30E94F500C82F0E946400892B7E
:1002B000E1F30E94F500C33329F4853319F40E9459
:0E02C000BE00ECCF0E94CF00E9CFF894FFCF34
:00000001FF
