:020000020000FC
:020000001CC022
:020020008FC18E
:100038008DC18FE58DBF84E08EBF8FEF87BB81BBFD
:10004800882780EF84BB31E044270027552784E0C8
:1000580089BF85E08EBD8CEF8DBD83EF8CBD35D11A
:1000680088279927F5D078946BD0803021F4903088
:1000780011F421E001C020E02130B1F37FD08033BA
:1000880011F421E001C020E0203051F159D0803036
:1000980021F4903011F421E001C020E02130B1F3C7
:1000A800DC016CD0843311F421E001C020E0203061
:1000B800B9F088279927CCD087E5B6D085E4B4D0A5
:1000C8008CE4B2D083E4B0D08FE4AED08DE4ACD071
:1000D80085E4AAD001E080EA9FE083D10027C4CF5D
:1000E80014E05FEF84EF91E07CD1552784EF91E035
:1000F80078D11A951030A9F7B7CF95BB8F939F93F6
:1001080084EF91E078D19F918F910000000083B334
:100118008F700895AF93BF9390E1EFDF8295B82F6A
:1001280090E2EBDFB80F90E4E8DF8295A82F90E823
:10013800E4DFA80FCD01AA27A5BBBF91AF91089511
:100148006F937F93AF93BF93E5DF8F939F938FE078
:1001580090E047D1DFDF7F916F9186239723A0E658
:10016800B0E07D916C918C939E93709560958623F9
:100178009723BF91AF917F916F910895AF93BF93EC
:10018800DC018AE2A0FD2FC080E3A1FD2CC083E240
:10019800A2FD29C084E4A3FD26C087E3A4FD23C0F3
:1001A80088E3A5FD20C089E3A6FD1DC083E4A7FD63
:1001B8001AC084E3B0FD17C085E3B1FD14C086E31F
:1001C800B2FD11C082E4B3FD0EC081E3B4FD0BC0E3
:1001D80082E3B5FD08C083E3B6FD05C081E4B7FD41
:1001E80002C0882700C0BF91AF9108958F939F9355
:1001F80080E797E100D19F918F918F9390B39F7083
:10020800807F890F82BB939A93988F939F9380E7FF
:1002180097E1F1D09F918F918F918295807F890F7F
:1002280082BB939A939808958F939F93929ADEDF57
:100238008BE290E0E0D09F918F9108958F939F93E8
:100248009298D4DF87E290E0D6D09F918F9108955D
:100258008F939F9388E290E0C4D080E382BB939A07
:10026800939887E290E0C7D08F939F9388EE93E0AE
:10027800C2D09F918F9180E382BB939A939887E233
:1002880090E0B9D08F939F9388EE93E0B4D09F917C
:100298008F9180E282BB939A939887E290E0ABD0EB
:1002A8008F939F9388EE93E0A6D09F918F9188E2D9
:1002B800C5DF8CE0C3DF81E0C1DF8AEF95E09BD02A
:1002C80086E0BCDF9F918F91089580E487B98FE81D
:1002D80086B908958F939F9388279927B9DF83E478
:1002E800A3DF8CE4A1DF85E49FDF81E49DDF82E565
:1002F8009BDF9F918F9108958F939F9388279927CC
:10030800A7DF87E491DF81E48FDF83E58DDF80E27B
:100318008BDF84E489DF85E487DF84E585DF85E496
:1003280083DF83E481DF84E57FDF85E47DDF84E4A8
:100338007BDF9F918F9108958F9386B1806486B9F2
:100348008CEF8DBD83EF8CBD8F9118958F939F9304
:100358001F932F9311272227232F84B195B10030A3
:1003680019F03FEF10E837C0903051F0403021F4D9
:100378001FE74FEF31E025C010E0442731E021C0EE
:10038800863E30F04030C1F71FE34FEF31E019C02F
:100398008D3C30F0403081F71FE14FEF31E011C064
:1003A800833B18F01FE033270CC08E3718F017E096
:1003B800332707C0893418F013E0332702C011E04F
:1003C8003327231729F0303011F096DF01C082DF80
:1003D800503009F0106818BB2F911F919F918F9191
:1003E80018958F939F9386EE93E005D09F918F91F8
:1003F8000197B9F708950197000000000000000078
:04040800D1F708958B
:00000001FF
