:100000000C9431000C944E000C944E000C944E0055
:100010000C944E000C944E000C944E000C944E0028
:100020000C9432010C944E000C944E000C944E0033
:100030000C944E000C944E000C9465010C944E00F0
:100040000C944E000C944E000C944E000C944E00F8
:100050000C944E000C011A010E0110011201140142
:10006000160111241FBECFE5D4E0DEBFCDBF10E0E6
:10007000A0E6B0E0E4E9F4E002C005900D92A236FB
:10008000B107D9F720E0A2E6B0E001C01D92A83682
:10009000B207E1F70E94D8010C9448020C940000CA
:1000A00085BB87EE93E00197F1F700C0000083B3B2
:1000B0008F700895CF93DF9380E10E945000C82F86
:1000C000C295C07F80E20E945000C82B80E40E944D
:1000D0005000D82FD295D07F80E80E9450008D2B01
:1000E0002C2F30E0322F222715BAA901482BCA0144
:1000F000DF91CF910895CF93DF930E945A00EC01D6
:1001000088E28A95F1F70E945A008C239D23209162
:10011000600030E020953095809360008223932327
:10012000DF91CF9108958034910509F447C0D4F44C
:1001300084309105D9F164F481309105A9F18230C0
:10014000910509F451C08115904809F04BC048C091
:100150008031910579F18032910571F1089709F0AC
:1001600041C026C0811524E0920781F164F4811515
:1001700021E0920739F1811522E0920729F18038B8
:10018000910581F51DC0811520E1920719F124F434
:1001900081159840E9F026C0811520E29207E1F030
:1001A00081159044D9F01EC08AE2089583E2089533
:1001B00084E4089587E3089588E3089589E3089522
:1001C00083E4089584E3089585E3089586E308951C
:1001D00082E4089581E3089582E3089583E3089516
:1001E00081E4089580E0089580E3089580E090E040
:1001F00002C00E947B000097E1F30E9493000895E3
:1002000064E670E00E941A026730710588F4FB0111
:10021000E65DFF4F0C942E0281E0089587E008957B
:100220008FE008958FE108958FE308958FE7089593
:1002300080E0089583E0089584B195B121E08E3C7B
:1002400091050CF420E0209364000E94000180934B
:10025000670080916600909167008078892B809379
:10026000660008951F920F920FB60F9211242F93DC
:100270003F934F935F936F937F938F939F93AF932E
:10028000BF93EF93FF93809162008095809362000B
:1002900082EF9CEF9DBD8CBD8091650081110E9415
:1002A0007B0086B1806486B9FF91EF91BF91AF91D9
:1002B0009F918F917F916F915F914F913F912F917E
:1002C0000F900FBE0F901F9018951F920F920FB6B0
:1002D0000F9211242F933F934F935F936F937F93CC
:1002E0008F939F93AF93BF93EF93FF930E941C0153
:1002F00080916300811111C080916400882369F0AE
:1003000080916200882349F0809166008078809314
:1003100066008091660088BB0FC0809163008111E8
:100320000BC080916600909167008078892B809344
:1003300066008091660088BBFF91EF91BF91AF91FD
:100340009F918F917F916F915F914F913F912F91ED
:100350000F900FBE0F901F90189520E030E024C042
:10036000809166008068809366008091660088BBFB
:100370004FEF84E39CE0415080409040E1F700C0A3
:100380000000809166008F77809366008091660000
:1003900088BB4FEF84E39CE0415080409040E1F700
:1003A00000C000002F5F3F4F24303105CCF208958C
:1003B0008FEF87BB80EF84BB1ABA80E487B98FE8E0
:1003C00086B984E089BF85E08EBD82EF9CEF9DBD3C
:1003D0008CBD7894109263000E94F600803311F572
:1003E0000E94F60091E0909365008733C1F481E0AC
:1003F0008093630080E8809366008091660088BBEC
:100400002FEF87EA91E6215080409040E1F700C04D
:100410000000109266008091660088BBDBCF0E94CE
:10042000AD01D8CF0E94F6008FEF809365000E9447
:10043000AD01D0CF97FB072E16F4009407D077FDBF
:1004400009D00E94340207FC05D03EF490958195B6
:100450009F4F0895709561957F4F0895EE0FFF1F90
:100460000590F491E02D0994AA1BBB1B51E107C034
:10047000AA1FBB1FA617B70710F0A61BB70B881F34
:10048000991F5A95A9F780959095BC01CD010895C3
:04049000F894FFCF0E
:02049400020064
:00000001FF
